{
  "contractName": "DecentralizedLending",
  "abi": [
    {
      "inputs": [
        {
          "internalType": "contract IERC20",
          "name": "_collateralToken",
          "type": "address"
        },
        {
          "internalType": "contract IERC20",
          "name": "_lendingToken",
          "type": "address"
        }
      ],
      "stateMutability": "nonpayable",
      "type": "constructor"
    },
    {
      "inputs": [
        {
          "internalType": "address",
          "name": "owner",
          "type": "address"
        }
      ],
      "name": "OwnableInvalidOwner",
      "type": "error"
    },
    {
      "inputs": [
        {
          "internalType": "address",
          "name": "account",
          "type": "address"
        }
      ],
      "name": "OwnableUnauthorizedAccount",
      "type": "error"
    },
    {
      "anonymous": false,
      "inputs": [
        {
          "indexed": true,
          "internalType": "address",
          "name": "previousOwner",
          "type": "address"
        },
        {
          "indexed": true,
          "internalType": "address",
          "name": "newOwner",
          "type": "address"
        }
      ],
      "name": "OwnershipTransferred",
      "type": "event"
    },
    {
      "inputs": [],
      "name": "collateralToken",
      "outputs": [
        {
          "internalType": "contract IERC20",
          "name": "",
          "type": "address"
        }
      ],
      "stateMutability": "view",
      "type": "function"
    },
    {
      "inputs": [],
      "name": "lendingToken",
      "outputs": [
        {
          "internalType": "contract IERC20",
          "name": "",
          "type": "address"
        }
      ],
      "stateMutability": "view",
      "type": "function"
    },
    {
      "inputs": [
        {
          "internalType": "address",
          "name": "",
          "type": "address"
        }
      ],
      "name": "loans",
      "outputs": [
        {
          "internalType": "address",
          "name": "borrower",
          "type": "address"
        },
        {
          "internalType": "uint256",
          "name": "principal",
          "type": "uint256"
        },
        {
          "internalType": "uint256",
          "name": "collateral",
          "type": "uint256"
        },
        {
          "internalType": "uint256",
          "name": "interestRate",
          "type": "uint256"
        },
        {
          "internalType": "uint256",
          "name": "startTime",
          "type": "uint256"
        },
        {
          "internalType": "bool",
          "name": "isActive",
          "type": "bool"
        }
      ],
      "stateMutability": "view",
      "type": "function"
    },
    {
      "inputs": [],
      "name": "owner",
      "outputs": [
        {
          "internalType": "address",
          "name": "",
          "type": "address"
        }
      ],
      "stateMutability": "view",
      "type": "function"
    },
    {
      "inputs": [],
      "name": "renounceOwnership",
      "outputs": [],
      "stateMutability": "nonpayable",
      "type": "function"
    },
    {
      "inputs": [
        {
          "internalType": "address",
          "name": "newOwner",
          "type": "address"
        }
      ],
      "name": "transferOwnership",
      "outputs": [],
      "stateMutability": "nonpayable",
      "type": "function"
    },
    {
      "inputs": [
        {
          "internalType": "uint256",
          "name": "_principal",
          "type": "uint256"
        },
        {
          "internalType": "uint256",
          "name": "_collateral",
          "type": "uint256"
        },
        {
          "internalType": "uint256",
          "name": "_interestRate",
          "type": "uint256"
        }
      ],
      "name": "requestLoan",
      "outputs": [],
      "stateMutability": "nonpayable",
      "type": "function"
    },
    {
      "inputs": [],
      "name": "repayLoan",
      "outputs": [],
      "stateMutability": "nonpayable",
      "type": "function"
    },
    {
      "inputs": [
        {
          "internalType": "address",
          "name": "_borrower",
          "type": "address"
        }
      ],
      "name": "liquidateLoan",
      "outputs": [],
      "stateMutability": "nonpayable",
      "type": "function"
    },
    {
      "inputs": [
        {
          "internalType": "address",
          "name": "_borrower",
          "type": "address"
        }
      ],
      "name": "isCollateralInsufficient",
      "outputs": [
        {
          "internalType": "bool",
          "name": "",
          "type": "bool"
        }
      ],
      "stateMutability": "view",
      "type": "function"
    }
  ],
  "bytecode": "0x608060405234801562000010575f80fd5b506040516200176c3803806200176c83398181016040528101906200003691906200027d565b335f73ffffffffffffffffffffffffffffffffffffffff168173ffffffffffffffffffffffffffffffffffffffff1603620000aa575f6040517f1e4fbdf7000000000000000000000000000000000000000000000000000000008152600401620000a19190620002d3565b60405180910390fd5b620000bb816200014460201b60201c565b508160025f6101000a81548173ffffffffffffffffffffffffffffffffffffffff021916908373ffffffffffffffffffffffffffffffffffffffff1602179055508060035f6101000a81548173ffffffffffffffffffffffffffffffffffffffff021916908373ffffffffffffffffffffffffffffffffffffffff1602179055505050620002ee565b5f805f9054906101000a900473ffffffffffffffffffffffffffffffffffffffff169050815f806101000a81548173ffffffffffffffffffffffffffffffffffffffff021916908373ffffffffffffffffffffffffffffffffffffffff1602179055508173ffffffffffffffffffffffffffffffffffffffff168173ffffffffffffffffffffffffffffffffffffffff167f8be0079c531659141344cd1fd0a4f28419497f9722a3daafe3b4186f6b6457e060405160405180910390a35050565b5f80fd5b5f73ffffffffffffffffffffffffffffffffffffffff82169050919050565b5f620002348262000209565b9050919050565b5f620002478262000228565b9050919050565b62000259816200023b565b811462000264575f80fd5b50565b5f8151905062000277816200024e565b92915050565b5f806040838503121562000296576200029562000205565b5b5f620002a58582860162000267565b9250506020620002b88582860162000267565b9150509250929050565b620002cd8162000228565b82525050565b5f602082019050620002e85f830184620002c2565b92915050565b61147080620002fc5f395ff3fe608060405234801561000f575f80fd5b506004361061009c575f3560e01c8063bbdfa00e11610064578063bbdfa00e14610139578063edadbbfe14610155578063f2fde38b14610171578063f966ade71461018d578063fe9a8ccb146101975761009c565b8063715018a6146100a057806373b4086b146100aa5780638da5cb5b146100df578063aaaca558146100fd578063b2016bd41461011b575b5f80fd5b6100a86101c7565b005b6100c460048036038101906100bf9190610d85565b6101da565b6040516100d696959493929190610df1565b60405180910390f35b6100e761023d565b6040516100f49190610e50565b60405180910390f35b610105610264565b6040516101129190610ec4565b60405180910390f35b610123610289565b6040516101309190610ec4565b60405180910390f35b610153600480360381019061014e9190610d85565b6102ae565b005b61016f600480360381019061016a9190610f07565b610493565b005b61018b60048036038101906101869190610d85565b6107ee565b005b610195610872565b005b6101b160048036038101906101ac9190610d85565b610b16565b6040516101be9190610f57565b60405180910390f35b6101cf610b9b565b6101d85f610c22565b565b6001602052805f5260405f205f91509050805f015f9054906101000a900473ffffffffffffffffffffffffffffffffffffffff1690806001015490806002015490806003015490806004015490806005015f9054906101000a900460ff16905086565b5f805f9054906101000a900473ffffffffffffffffffffffffffffffffffffffff16905090565b60035f9054906101000a900473ffffffffffffffffffffffffffffffffffffffff1681565b60025f9054906101000a900473ffffffffffffffffffffffffffffffffffffffff1681565b6102b6610b9b565b5f60015f8373ffffffffffffffffffffffffffffffffffffffff1673ffffffffffffffffffffffffffffffffffffffff1681526020019081526020015f209050806005015f9054906101000a900460ff16610346576040517f08c379a000000000000000000000000000000000000000000000000000000000815260040161033d90610fca565b60405180910390fd5b61034f82610b16565b61038e576040517f08c379a000000000000000000000000000000000000000000000000000000000815260040161038590611032565b60405180910390fd5b60025f9054906101000a900473ffffffffffffffffffffffffffffffffffffffff1673ffffffffffffffffffffffffffffffffffffffff1663a9059cbb6103d361023d565b83600201546040518363ffffffff1660e01b81526004016103f5929190611050565b6020604051808303815f875af1158015610411573d5f803e3d5ffd5b505050506040513d601f19601f8201168201806040525081019061043591906110a1565b610474576040517f08c379a000000000000000000000000000000000000000000000000000000000815260040161046b90611116565b60405180910390fd5b5f816005015f6101000a81548160ff0219169083151502179055505050565b60015f3373ffffffffffffffffffffffffffffffffffffffff1673ffffffffffffffffffffffffffffffffffffffff1681526020019081526020015f206005015f9054906101000a900460ff1615610520576040517f08c379a00000000000000000000000000000000000000000000000000000000081526004016105179061117e565b60405180910390fd5b60025f9054906101000a900473ffffffffffffffffffffffffffffffffffffffff1673ffffffffffffffffffffffffffffffffffffffff166323b872dd3330856040518463ffffffff1660e01b815260040161057e9392919061119c565b6020604051808303815f875af115801561059a573d5f803e3d5ffd5b505050506040513d601f19601f820116820180604052508101906105be91906110a1565b6105fd576040517f08c379a00000000000000000000000000000000000000000000000000000000081526004016105f490611116565b60405180910390fd5b60035f9054906101000a900473ffffffffffffffffffffffffffffffffffffffff1673ffffffffffffffffffffffffffffffffffffffff1663a9059cbb33856040518363ffffffff1660e01b8152600401610659929190611050565b6020604051808303815f875af1158015610675573d5f803e3d5ffd5b505050506040513d601f19601f8201168201806040525081019061069991906110a1565b6106d8576040517f08c379a00000000000000000000000000000000000000000000000000000000081526004016106cf9061121b565b60405180910390fd5b6040518060c001604052803373ffffffffffffffffffffffffffffffffffffffff1681526020018481526020018381526020018281526020014281526020016001151581525060015f3373ffffffffffffffffffffffffffffffffffffffff1673ffffffffffffffffffffffffffffffffffffffff1681526020019081526020015f205f820151815f015f6101000a81548173ffffffffffffffffffffffffffffffffffffffff021916908373ffffffffffffffffffffffffffffffffffffffff1602179055506020820151816001015560408201518160020155606082015181600301556080820151816004015560a0820151816005015f6101000a81548160ff021916908315150217905550905050505050565b6107f6610b9b565b5f73ffffffffffffffffffffffffffffffffffffffff168173ffffffffffffffffffffffffffffffffffffffff1603610866575f6040517f1e4fbdf700000000000000000000000000000000000000000000000000000000815260040161085d9190610e50565b60405180910390fd5b61086f81610c22565b50565b5f60015f3373ffffffffffffffffffffffffffffffffffffffff1673ffffffffffffffffffffffffffffffffffffffff1681526020019081526020015f209050806005015f9054906101000a900460ff16610902576040517f08c379a00000000000000000000000000000000000000000000000000000000081526004016108f990610fca565b60405180910390fd5b5f610925826001015483600301548460040154426109209190611266565b610ce3565b90505f8183600101546109389190611299565b905060035f9054906101000a900473ffffffffffffffffffffffffffffffffffffffff1673ffffffffffffffffffffffffffffffffffffffff166323b872dd3330846040518463ffffffff1660e01b81526004016109989392919061119c565b6020604051808303815f875af11580156109b4573d5f803e3d5ffd5b505050506040513d601f19601f820116820180604052508101906109d891906110a1565b610a17576040517f08c379a0000000000000000000000000000000000000000000000000000000008152600401610a0e90611316565b60405180910390fd5b60025f9054906101000a900473ffffffffffffffffffffffffffffffffffffffff1673ffffffffffffffffffffffffffffffffffffffff1663a9059cbb3385600201546040518363ffffffff1660e01b8152600401610a77929190611050565b6020604051808303815f875af1158015610a93573d5f803e3d5ffd5b505050506040513d601f19601f82011682018060405250810190610ab791906110a1565b610af6576040517f08c379a0000000000000000000000000000000000000000000000000000000008152600401610aed9061137e565b60405180910390fd5b5f836005015f6101000a81548160ff021916908315150217905550505050565b5f8060015f8473ffffffffffffffffffffffffffffffffffffffff1673ffffffffffffffffffffffffffffffffffffffff1681526020019081526020015f2090505f610b7a82600101548360030154846004015442610b759190611266565b610ce3565b8260010154610b899190611299565b90508082600201541092505050919050565b610ba3610d20565b73ffffffffffffffffffffffffffffffffffffffff16610bc161023d565b73ffffffffffffffffffffffffffffffffffffffff1614610c2057610be4610d20565b6040517f118cdaa7000000000000000000000000000000000000000000000000000000008152600401610c179190610e50565b60405180910390fd5b565b5f805f9054906101000a900473ffffffffffffffffffffffffffffffffffffffff169050815f806101000a81548173ffffffffffffffffffffffffffffffffffffffff021916908373ffffffffffffffffffffffffffffffffffffffff1602179055508173ffffffffffffffffffffffffffffffffffffffff168173ffffffffffffffffffffffffffffffffffffffff167f8be0079c531659141344cd1fd0a4f28419497f9722a3daafe3b4186f6b6457e060405160405180910390a35050565b5f6127106301e13380838587610cf9919061139c565b610d03919061139c565b610d0d919061140a565b610d17919061140a565b90509392505050565b5f33905090565b5f80fd5b5f73ffffffffffffffffffffffffffffffffffffffff82169050919050565b5f610d5482610d2b565b9050919050565b610d6481610d4a565b8114610d6e575f80fd5b50565b5f81359050610d7f81610d5b565b92915050565b5f60208284031215610d9a57610d99610d27565b5b5f610da784828501610d71565b91505092915050565b610db981610d4a565b82525050565b5f819050919050565b610dd181610dbf565b82525050565b5f8115159050919050565b610deb81610dd7565b82525050565b5f60c082019050610e045f830189610db0565b610e116020830188610dc8565b610e1e6040830187610dc8565b610e2b6060830186610dc8565b610e386080830185610dc8565b610e4560a0830184610de2565b979650505050505050565b5f602082019050610e635f830184610db0565b92915050565b5f819050919050565b5f610e8c610e87610e8284610d2b565b610e69565b610d2b565b9050919050565b5f610e9d82610e72565b9050919050565b5f610eae82610e93565b9050919050565b610ebe81610ea4565b82525050565b5f602082019050610ed75f830184610eb5565b92915050565b610ee681610dbf565b8114610ef0575f80fd5b50565b5f81359050610f0181610edd565b92915050565b5f805f60608486031215610f1e57610f1d610d27565b5b5f610f2b86828701610ef3565b9350506020610f3c86828701610ef3565b9250506040610f4d86828701610ef3565b9150509250925092565b5f602082019050610f6a5f830184610de2565b92915050565b5f82825260208201905092915050565b7f4e6f20616374697665206c6f616e0000000000000000000000000000000000005f82015250565b5f610fb4600e83610f70565b9150610fbf82610f80565b602082019050919050565b5f6020820190508181035f830152610fe181610fa8565b9050919050565b7f436f6c6c61746572616c2069732073756666696369656e7400000000000000005f82015250565b5f61101c601883610f70565b915061102782610fe8565b602082019050919050565b5f6020820190508181035f83015261104981611010565b9050919050565b5f6040820190506110635f830185610db0565b6110706020830184610dc8565b9392505050565b61108081610dd7565b811461108a575f80fd5b50565b5f8151905061109b81611077565b92915050565b5f602082840312156110b6576110b5610d27565b5b5f6110c38482850161108d565b91505092915050565b7f436f6c6c61746572616c207472616e73666572206661696c65640000000000005f82015250565b5f611100601a83610f70565b915061110b826110cc565b602082019050919050565b5f6020820190508181035f83015261112d816110f4565b9050919050565b7f4578697374696e67206c6f616e206163746976650000000000000000000000005f82015250565b5f611168601483610f70565b915061117382611134565b602082019050919050565b5f6020820190508181035f8301526111958161115c565b9050919050565b5f6060820190506111af5f830186610db0565b6111bc6020830185610db0565b6111c96040830184610dc8565b949350505050565b7f4c656e64696e67207472616e73666572206661696c65640000000000000000005f82015250565b5f611205601783610f70565b9150611210826111d1565b602082019050919050565b5f6020820190508181035f830152611232816111f9565b9050919050565b7f4e487b71000000000000000000000000000000000000000000000000000000005f52601160045260245ffd5b5f61127082610dbf565b915061127b83610dbf565b925082820390508181111561129357611292611239565b5b92915050565b5f6112a382610dbf565b91506112ae83610dbf565b92508282019050808211156112c6576112c5611239565b5b92915050565b7f52657061796d656e74207472616e73666572206661696c6564000000000000005f82015250565b5f611300601983610f70565b915061130b826112cc565b602082019050919050565b5f6020820190508181035f83015261132d816112f4565b9050919050565b7f436f6c6c61746572616c2072657475726e206661696c656400000000000000005f82015250565b5f611368601883610f70565b915061137382611334565b602082019050919050565b5f6020820190508181035f8301526113958161135c565b9050919050565b5f6113a682610dbf565b91506113b183610dbf565b92508282026113bf81610dbf565b915082820484148315176113d6576113d5611239565b5b5092915050565b7f4e487b71000000000000000000000000000000000000000000000000000000005f52601260045260245ffd5b5f61141482610dbf565b915061141f83610dbf565b92508261142f5761142e6113dd565b5b82820490509291505056fea26469706673582212206e619afba54bb9f1c292994d012ce5d705267897bc7bf7c3a02cd111edc1db6264736f6c63430008150033",
  "immutableReferences": {},
  "source": "// SPDX-License-Identifier: MIT\r\npragma solidity ^0.8.0;\r\n\r\nimport \"@openzeppelin/contracts/token/ERC20/IERC20.sol\";\r\nimport \"@openzeppelin/contracts/access/Ownable.sol\";\r\n\r\ncontract DecentralizedLending is Ownable {\r\n    struct Loan {\r\n        address borrower;\r\n        uint256 principal;\r\n        uint256 collateral;\r\n        uint256 interestRate; // in basis points (e.g., 500 for 5%)\r\n        uint256 startTime;\r\n        bool isActive;\r\n    }\r\n\r\n    mapping(address => Loan) public loans;\r\n    IERC20 public collateralToken;\r\n    IERC20 public lendingToken;\r\n\r\n    constructor(IERC20 _collateralToken, IERC20 _lendingToken) Ownable(msg.sender) {\r\n        collateralToken = _collateralToken;\r\n        lendingToken = _lendingToken;\r\n    }\r\n\r\n    function requestLoan(uint256 _principal, uint256 _collateral, uint256 _interestRate) external {\r\n        require(!loans[msg.sender].isActive, \"Existing loan active\");\r\n\r\n        require(collateralToken.transferFrom(msg.sender, address(this), _collateral), \"Collateral transfer failed\");\r\n        require(lendingToken.transfer(msg.sender, _principal), \"Lending transfer failed\");\r\n\r\n        loans[msg.sender] = Loan({\r\n            borrower: msg.sender,\r\n            principal: _principal,\r\n            collateral: _collateral,\r\n            interestRate: _interestRate,\r\n            startTime: block.timestamp,\r\n            isActive: true\r\n        });\r\n    }\r\n\r\n    function repayLoan() external {\r\n        Loan storage loan = loans[msg.sender];\r\n        require(loan.isActive, \"No active loan\");\r\n\r\n        uint256 interest = calculateInterest(loan.principal, loan.interestRate, block.timestamp - loan.startTime);\r\n        uint256 totalRepayment = loan.principal + interest;\r\n\r\n        require(lendingToken.transferFrom(msg.sender, address(this), totalRepayment), \"Repayment transfer failed\");\r\n        require(collateralToken.transfer(msg.sender, loan.collateral), \"Collateral return failed\");\r\n\r\n        loan.isActive = false;\r\n    }\r\n\r\n    function liquidateLoan(address _borrower) external onlyOwner {\r\n        Loan storage loan = loans[_borrower];\r\n        require(loan.isActive, \"No active loan\");\r\n        require(isCollateralInsufficient(_borrower), \"Collateral is sufficient\");\r\n\r\n        require(collateralToken.transfer(owner(), loan.collateral), \"Collateral transfer failed\");\r\n        loan.isActive = false;\r\n    }\r\n\r\n    function calculateInterest(uint256 _principal, uint256 _interestRate, uint256 _timeElapsed) internal pure returns (uint256) {\r\n        return _principal * _interestRate * _timeElapsed / 365 days / 10000;\r\n    }\r\n\r\n    function isCollateralInsufficient(address _borrower) public view returns (bool) {\r\n        Loan storage loan = loans[_borrower];\r\n        uint256 requiredCollateral = loan.principal + calculateInterest(loan.principal, loan.interestRate, block.timestamp - loan.startTime);\r\n        return loan.collateral < requiredCollateral;\r\n    }\r\n}\r\n",
  "sourcePath": "C:\\Users\\samue\\Desktop\\Emprestimo Descentralizado\\decentralized-lending\\contracts\\DecentralizedLending.sol",
  "compiler": {
    "name": "solc",
    "version": "0.8.21+commit.d9974bed.Emscripten.clang"
  },
  "schemaVersion": "3.4.16",
  "updatedAt": "2024-07-31T20:40:31.636Z",
  "devdoc": {
    "errors": {
      "OwnableInvalidOwner(address)": [
        {
          "details": "The owner is not a valid owner account. (eg. `address(0)`)"
        }
      ],
      "OwnableUnauthorizedAccount(address)": [
        {
          "details": "The caller account is not authorized to perform an operation."
        }
      ]
    },
    "kind": "dev",
    "methods": {
      "owner()": {
        "details": "Returns the address of the current owner."
      },
      "renounceOwnership()": {
        "details": "Leaves the contract without owner. It will not be possible to call `onlyOwner` functions. Can only be called by the current owner. NOTE: Renouncing ownership will leave the contract without an owner, thereby disabling any functionality that is only available to the owner."
      },
      "transferOwnership(address)": {
        "details": "Transfers ownership of the contract to a new account (`newOwner`). Can only be called by the current owner."
      }
    },
    "version": 1
  },
  "userdoc": {
    "kind": "user",
    "methods": {},
    "version": 1
  }
}